:1000000002059532000000000000003200000000F0
:10001000000000320000000000000032000000007C
:100020000000003200000000000000320000C39514
:10003000F02212002E60044002E422740122020425
:100040008512048560044002E422740122D3E43363
:10005000DAFDFAF4FB22AE02E6F70809DEFA22C066
:10006000E0741B1470FDD0E000227B0474FA1201CE
:100070000BDBF9DAF522C0E0740312010BD0E022A9
:10008000D2B1C2B3A2E492B4A2E592B5A2E692B60E
:10009000A2E792B7D2B3C2B3A2E092B4A2E192B502
:1000A000A2E292B6A2E392B7D2B3C2B312005F1239
:1000B000005F22C2B180CBC2B1C2B3120076C2B718
:1000C000C2B6D2B5D2B4D2B3C2B3120076120076A1
:1000D000D2B3C2B3120076D2B3C2B3120076C2B4A6
:1000E000D2B3C2B312007674281200B3740E120099
:1000F000B374061200B32274C01200B3227401124A
:1001000000B312007674801200B32278C87902D846
:10011000FED9FCD5E0F522AE02760008DEFB22789F
:100120000C3117200111C2D574082A14F8E630E703
:1001300006B2D57808319A20010F74102A14F8E617
:1001400030E706B2D57810319A7810790875F00842
:10015000EAA4FBE626F6C0D0BA0104D0D0800BD0CA
:10016000D0AE021E08E633F6DEFA780CAE02E633B5
:10017000F608DEFAAE02780CE6970908DEFA19787E
:100180001040127908C3780CAE02E697F60908DE33
:10019000F9781019067908DBBA22AE02D3E6F434F6
:1001A00000F608DEF822C0017910120056D001C016
:1001B0000174102A14F8E6C0E07808311778087640
:1001C0000AE9240FF9E4F719C001311F780CD001B6
:1001D000E62430F77810AE02E44608DEFC70E8D082
:1001E000E020010730E704742D19F7A801D0017A47
:1001F000101201F522E6F760040809DAF8E4F722A4
:10020000E760030980FA227900E6080970FBE91427
:1002100022A981191919E7F81202248D088E098F75
:100220000A8B0B22E4FFFEFDFCFBC2D5C2D1E6B473
:100230002D0508D2F08006B42E0108C2F0C0F0E609
:10024000B42E02800AB4300E08E618B42E080879DD
:1002500008D2D102028CE6B42E028028B4000280BB
:1002600023C39430FC790808E6B42E028016B4004B
:1002700007E4FAF9F8020321C39430FA1203ADD966
:10028000E6020348C004C005C006C007E4FFFEFD47
:10029000FBE9B40107E4FAF9F802032108E6B40027
:1002A00007E4FAF9F8020321C39430FCC00119E90C
:1002B000601008E6B400028009C39430FA1203AD5E
:1002C000D9F0D0E0C082C399F582E4F9FAFBEF756A
:1002D000F00A84FFC082780675820CC2D5E620D56C
:1002E0000454F08003540FC445F0C475F00A84C070
:1002F00082F582E620D508540FC44582C480045498
:10030000F04582F6D082B2D520D50118D582CED064
:1003100082D582BAD08220D160D007D006D005D055
:100320000475F020EF20E725E828F8E933F9EA33EF
:10033000FAEB33FBEC33FCED33FDEE33FEEF33FF32
:10034000D5F0E275F082802175F081801CEC30E7F9
:1003500018ED2401FDEE3400FEEF3400FF500A05D5
:10036000F013FFEE13FEED13FDE5F014247FD0F043
:10037000A2F013FBEF92E7FF2275F020EB20E711CC
:10038000E929F9EA33FAEB33FBD5F0F175F07F8018
:10039000077421C395F0F5F089058A068B07747FF1
:1003A00095F0D0F0A2F013FBEF92E7FF22EC75F08E
:1003B0000AA42AFCE5F03400CDC0D075F00AA4D020
:1003C000D03DFDE5F03400CEC0D075F00AA4D0D009
:1003D0003EFEE5F03400FF22E66006120080088051
:1003E000F722E47808F608B811FB78111205897035
:1003F00003020481781512058970030204817813C1
:10040000E633034480F608E6339208FF7817E633B4
:10041000034480F608E6335002B2082F30E7045058
:10042000118002400D7510007511007512007513D2
:1004300000222481F67A18C378137B06E613F61897
:10044000DBFA78157B03E633F608DBFA500E780802
:10045000790EC37B06E637F60809DBF9DAD9780DA1
:10046000E6791830E70307800B78087A06E633F65A
:1004700008DAFA18E7A20813F7E692E7F685180EED
:1004800022750E0022E50BB2E7850FF0B2F720E7E8
:100490000520F7028018B5F012E50AB50E0DE50942
:1004A000B50D08E508B50C03C3E42274FF22C5F0BE
:1004B000B5F0F8E50EB50AF3E50DB509EEE50CB5B6
:1004C00008E980E4E4FBFAEEA2E74480FEEF335053
:1004D000027A016010C3947FFF20E709BF2000402B
:1004E0000B74FF8001E4FBFCFDFE8014741FC39FAE
:1004F000FFC3EE13FEED13FDEC13FCEB13FBDFF17A
:10050000BA0114EBF42401FBECF43400FCEDF434F8
:1005100000FDEEF43400FE8B088C098D0A8E0B2250
:100520007A00EE30E716EBF42401FBECF43400FC27
:10053000EDF43400FDEEF43400FE7A017F1FEB2B66
:10054000FBEC33FCED33FDEE33FE20E709DFEFE497
:10055000FCFDFEFF8021EF247EFFEB30E719EC2449
:1005600001FC5013ED3400FDEE3400FE50090F1372
:10057000FEED13FDEC13FCEAA2E0EF13F618EE9289
:10058000E7F618A60518A60422E4C0017904460877
:10059000D9FCD0012278FFE4F6D8FD75814475209E
:1005A000001200B7740024401200B3780BE8836097
:1005B000061200800880F60205C320201F111F10BC
:1005C0001F0200740824401200B3780BE883600611
:1005D0001200800880F60205E22020040A111F2084
:1005E0002000740C1200B31200FD780BE883600643
:1005F0001200800880F60205FE4E61706900E41268
:100600000080780BE88360061200800880F60206FE
:100610001863696520553D0075330075F003E533B7
:1006200012003270030206A3AA330A12004DEB52E5
:1006300080300A05308412C20A20840D7419120118
:100640000B208405D20A1206A6300B05308512C293
:100650000B20850D741912010B208505D20B120693
:10066000A6300C05308612C20C20860D74191201BA
:100670000B208605D20C1206A6300D05308712C25B
:100680000D20870D741912010B208705D20D12065B
:10069000A6AA330A12004DEA42800533E53360030F
:1006A00002061B0206187934E4F7E580B4EE0280F6
:1006B000030206C479347B05EB04FB83F70970F869
:1006C00080023100E580B4DE0280030206DE793468
:1006D0007B05EB04FB83F70970F880023400E580AA
:1006E000B4BE0280030206F879347B05EB04FB8379
:1006F000F70970F880023700E580B47E02800302BB
:10070000071279347B05EB04FB83F70970F880024C
:100710002E00E580B4ED02800302072C79347B05BE
:10072000EB04FB83F70970F880023200E580B4DD4A
:1007300002800302074679347B05EB04FB83F7094B
:1007400070F880023500E580B4BD028003020760C6
:1007500079347B05EB04FB83F70970F880023800DD
:10076000E580B47D02800302077A79347B05EB04CF
:10077000FB83F70970F880023000E580B4EB02805B
:100780000302079479347B05EB04FB83F70970F8C7
:1007900080023300E580B4DB0280030207AE7934C7
:1007A0007B05EB04FB83F70970F880023600E580D7
:1007B000B4BB0280030207C879347B05EB04FB83DA
:1007C000F70970F880023900793612020078347A1D
:1007D000051201F5E580B4B702800302081D7934E3
:1007E0007B05EB04FB83F70970F880024300783641
:1007F000120207F54275F001E542C395F0C0E078BA
:1008000042D0E0F67936AA4278361201F57700E553
:1008100042B40002800302081D7936E4F712090B86
:10082000E580B47B02800302090579347B05EB0483
:10083000FB83F70970F880022300792278367A105A
:100840001201F57922C001E4C0E0120211158115F0
:1008500081793C78087A04120056853C08853D0968
:10086000853E0A853F0B750C00750D00750EC07531
:100870000F41120041600302087E1209B222751175
:1008800000751200751320751441853C15853D16C1
:10089000853E17853F181203E2850B3C850C3D858C
:1008A0000D3E850E3F783C860408860508860608BE
:1008B00086071204C4850840850941853C08853DAA
:1008C00009853E0A853F0B78408603088604EC7F45
:1008D0000030E7027FFFAD07AE07780F12052078E2
:1008E0000CA60C08A60D08A60E08A60F12003E7056
:1008F000030208F81209B2221209427936E4F774A9
:100900007812010B22747812010B221200FD780B71
:10091000E88360061200800880F60209224E6170AA
:100920006900E4120080780BE883600612008008FA
:1009300080F602093C63696520553D007836120354
:10094000D8221200FD780BE8836006120080088030
:10095000F60209594E61706900E4120080780BE8D4
:100960008360061200800880F602097363696520BF
:10097000553D0078361203D8780BE88360061200E4
:10098000800880F602098956001200F7780BE88388
:1009900060061200800880F60209A342616A742092
:1009A0002D200078407A0279221201A678221203C3
:1009B000D8221200FD780BE88360061200800880C0
:1009C000F60209CE553D20302D323420560012005B
:1009D000F77401120080780BE8836006120080082B
:1009E00080F60209EA3D302E31007A0112006A7960
:1009F00036E4F712090B220000000000000000009E
:00000001FF
