:100000000204343200000000000000320000000052
:10001000000000320000000000000032000000007C
:100020000000003200000000000000320000C39514
:10003000F02212002E60044002E422740122D3E474
:1000400033DAFDFAF4FB22AE02E6F70809DEFA2203
:10005000222222D2B1C2B3A2E492B4A2E592B5A206
:10006000E692B6A2E792B7D2B3C2B3A2E092B4A22C
:10007000E192B5A2E292B6A2E392B7D2B3C2B312B2
:10008000005012005022C2B180CBC2B1C2B31200E4
:1000900052C2B7C2B6D2B5D2B4D2B3C2B3120052B2
:1000A000120052D2B3C2B3120052D2B3C2B3120082
:1000B00052C2B4D2B3C2B312005274281200867472
:1000C0000E12008674061200862274011200861237
:1000D000005274801200862222E6F760040809DAD2
:1000E000F8E4F722E760030980FA227900E60809BC
:1000F00070FBE914227F07ED30E703762D08EC331F
:10010000ED33C3947FFDECD2E7FCED30E71FF40440
:10011000FD763008762E08EDC3942140067630082F
:10012000E4F622E4F91DED6044511E8040C39420A2
:10013000400C766E08766108766E087600227900AB
:10014000C002C003C004C005741FC39D6003FD51FD
:100150001E512E762E08D005D004D003D00279008F
:100160000DEDB420067630087600225111ECCFFC5C
:10017000EBFEEAFDE4FBFAF9C00431D9DCFCEF3018
:10018000E70AE92401F9E43AFAE43BFBE4FCD0078E
:100190007D0031B4C0E00DEC4B4A4970F5EFC39DD2
:1001A0006007FA7430F608DAFCD0E02430F608DD97
:1001B000F8E4F622C000C005E4FD7820E929F9EA58
:1001C00033FAEB33FBEC33FCED33FD940A4002FDD4
:1001D00009D8E9EDD005D00022ED75F00AA4FDE5BF
:1001E000F0CE75F00AA42EFEE435F0CF75F00AA427
:1001F0002FFFE435F0C975F00AA429F9E435F0CAF7
:1002000075F00AA42AFAE435F0CB75F00AA42BFBAA
:1002100022EAC333FAEB33FBEC33FCDDF422ECC30C
:1002200013FCEB13FBEA13FAE913F9DDF1227D006D
:1002300031B4C0E00DEC4B4A4970F5D0E02430F603
:1002400008DDF8E4F622A981191919E7F812025914
:100250008D088E098F0A8B0B22E4FFFEFDFCFBC28A
:10026000D5C2D1E6B42D0508D2F08006B42E01081F
:10027000C2F0C0F0E6B42E02800AB4300E08E618D0
:10028000B42E08087908D2D10202C1E6B42E028049
:1002900028B400028023C39430FC790808E6B42E09
:1002A000028016B40007E4FAF9F8020356C394304A
:1002B000FA1203E2D9E602037DC004C005C006C0FD
:1002C00007E4FFFEFDFBE9B40107E4FAF9F80203D5
:1002D0005608E6B40007E4FAF9F8020356C394306E
:1002E000FCC00119E9601008E6B400028009C3945B
:1002F00030FA1203E2D9F0D0E0C082C399F582E46B
:10030000F9FAFBEF75F00A84FFC082780675820C5B
:10031000C2D5E620D50454F08003540FC445F0C480
:1003200075F00A84C082F582E620D508540FC445D2
:1003300082C4800454F04582F6D082B2D520D50123
:1003400018D582CED082D582BAD08220D160D00793
:10035000D006D005D00475F020EF20E725E828F876
:10036000E933F9EA33FAEB33FBEC33FCED33FDEE22
:1003700033FEEF33FFD5F0E275F082802175F08116
:10038000801CEC30E718ED2401FDEE3400FEEF3464
:1003900000FF500A05F013FFEE13FEED13FDE5F02C
:1003A00014247FD0F0A2F013FBEF92E7FF2275F048
:1003B00020EB20E711E929F9EA33FAEB33FBD5F01A
:1003C000F175F07F80077421C395F0F5F089058AF7
:1003D000068B07747F95F0D0F0A2F013FBEF92E745
:1003E000FF22EC75F00AA42AFCE5F03400CDC0D061
:1003F00075F00AA4D0D03DFDE5F03400CEC0D07534
:10040000F00AA4D0D03EFEE5F03400FF22E66006FC
:100410001200530880F722BA0104797F8010BA02D3
:100420000479BF8009BA0304798F800279CFE92566
:10043000F002008678FFE4F6D8FD75814C75200047
:1004400012008A74002440120086780BE88360064C
:100450001200530880F602046220201F111F101F93
:10046000020075330075F003E533113270030204A6
:10047000ECAA330A12003EEB52A0300A0530A41257
:10048000C20A20A40D74191200D820A405D20A12A1
:1004900004EF300B0530A512C20B20A50D74191204
:1004A00000D820A505D20B1204EF300C0530A6129F
:1004B000C20C20A60D74191200D820A605D20C1269
:1004C00004EF300D0530A712C20D20A70D741912CC
:1004D00000D820A705D20D1204EFAA330A12003E5D
:1004E000EA42A00533E53360030204650204627941
:1004F00034E4F7E580B4EE02800302050D79347B25
:1005000005EB04FB83F70970F880023100E580B445
:10051000DE02800302052779347B05EB04FB83F7B9
:100520000970F880023400E580B4BE028003020541
:100530004179347B05EB04FB83F70970F8800237BF
:1005400000E580B47E02800302055B79347B05EB15
:1005500004FB83F70970F880022E00E580B4ED02F9
:10056000800302057579347B05EB04FB83F7097082
:10057000F880023200E580B4DD02800302058F7945
:10058000347B05EB04FB83F70970F880023500E546
:1005900080B4BD0280030205A979347B05EB04FB1E
:1005A00083F70970F880023800E580B47D0280038B
:1005B0000205C379347B05EB04FB83F70970F880EF
:1005C000023000E580B4EB0280030205DD79347B64
:1005D00005EB04FB83F70970F880023300E580B473
:1005E000DB0280030205F779347B05EB04FB83F71C
:1005F0000970F880023600E580B4BB028003020671
:100600001179347B05EB04FB83F70970F88002391C
:1006100000793611E478347A0F1200D9E580B47B82
:1006200002800302065779347B05EB04FB83F7094C
:1006300070F880022300792278367A101200D97976
:1006400022C001E4C0E05146158115817946780841
:100650007A041147D1CE22E580B4B70280030206A6
:100660009079347B05EB04FB83F70970F880024333
:1006700000783611EBF54A75F001E54AC395F0C0F4
:10068000E0784AD0E0F67936AA4A783611D9770070
:10069000D1932211CA797F75F00112042E780BE8EC
:1006A0008360061200530880F60206B14E6170693D
:1006B00000E41153780BE88360061200530880F6BB
:1006C0000206C96369653A20007836910D2211CA85
:1006D000797F75F00112042E780BE8836006120012
:1006E000530880F60206EC4E61706900E4115378FD
:1006F0000BE88360061200530880F6020704636962
:10070000653A200078468602088603088604088633
:1007100005782211F57822910D780BE88360061296
:1007200000530880F602072A56002200000000004D
:00000001FF
