:100000000202FB320000000000000032000000008D
:10001000000000320000000000000032000000007C
:1000200000000032000000000000003200008604E2
:100030007D00E6080DB42EFAE829F88607E4F6ED0F
:1000400029FDEFC39434600250012218D2D5E6B4E2
:100050002E028012B42D02800D30D50304C2D5B417
:100060003A047430D2D5F618DDE430D51C087D0092
:10007000E6080D70FB880118E6F71819DDFAECB4F4
:100080002D04742DF7097431F722C395F022120064
:100090008A60044002E422740122D3E433DAFDFAD8
:1000A000F4FB22AE02E6F70809DEFA2222740D12F2
:1000B00000B8740A1200B8223099FDC299F599224D
:1000C0002222D2B1C2B3A2E492B4A2E592B5A2E6D2
:1000D00092B6A2E792B7D2B3C2B3A2E092B4A2E1C1
:1000E00092B5A2E292B6A2E392B7D2B3C2B3120023
:1000F000AC1200AC22C2B180CBC2B1C2B31200C1FB
:10010000C2B7C2B6D2B5D2B4D2B3C2B31200C11212
:1001100000C1D2B3C2B31200C1D2B3C2B31200C184
:10012000C2B4D2B3C2B31200C174281200F5740E67
:100130001200F574061200F52274011200F5120087
:10014000C174801200F52222C3AE02E637F7080917
:10015000DEF9227408C0F08502F0A4FFD0F0781018
:100160003176C37810317E7808317E5006780C796C
:10017000103148DFED22AE02760008DEFB22AE022F
:10018000E633F608DEFA22780C3176200111C2D56A
:1001900074082A14F8E630E706B2D5780851022030
:1001A000010F74102A14F8E630E706B2D578105122
:1001B000027810790875F008EAA4FBE626F6C0D0AC
:1001C000BA0104D0D0800BD0D0AE021E08E633F6C0
:1001D000DEFA780CAE02E633F608DEFAAE02780CF0
:1001E000E6970908DEFA19781040127908C3780CEE
:1001F000AE02E697F60908DEF9781019067908DBF1
:10020000BA22AE02D3E6F43400F608DEF822C001CA
:10021000791011A3D001C00174102A14F8E6C0E0CF
:10022000780831767808760AE9240FF9E4F719C0DE
:10023000013187780CD001E62430F77810AE02E463
:100240004608DEFC70E8D0E020010730E704742D9A
:1002500019F7A801D0017A1051AE22E58104F5F01A
:100260002AF581C2D578103176A8F03176E7603171
:10027000B42D04D2D580279430C0E0C00178107925
:100280000C11A3780831767808760A3153D001A88A
:10029000F0D0E0F6C001A8F079103148D001098013
:1002A000CC30D50478105102E5F014F58122E6F740
:1002B00060040809DAF8E4F722E760030980FA220B
:1002C0007900E6080970FBE91422E660061200B81E
:1002D0000880F722E660061200C20880F722BA0101
:1002E00004797F8010BA020479BF8009BA030479C7
:1002F0008F800279CFE925F00200F578FFE4F6D887
:10030000FD75814A7520001200F974002440120026
:10031000F5780BE88360061200C20880F602032914
:1003200020201F111F101F0200740C11F5753300DF
:1003300075F003E533118E70030203B7AA330A1276
:10034000009AEB5280300505308412C20520840DDE
:100350007419120147208405D2051203BA3006052C
:10036000308512C20620850D7419120147208505BB
:10037000D2061203BA300705308612C20720860D56
:100380007419120147208605D2071203BA300805F6
:10039000308712C20820870D741912014720870583
:1003A000D2081203BAAA330A12009AEA428005332D
:1003B000E533600302033002032D7934E4F7E5806E
:1003C000B4EE0280030203D879347B05EB04FB838F
:1003D000F70970F880023100E580B4DE0280030284
:1003E00003F279347B05EB04FB83F70970F8800294
:1003F0003400E580B4BE02800302040C79347B052E
:10040000EB04FB83F70970F880023700E580B47EC7
:1004100002800302042679347B05EB04FB83F70991
:1004200070F880022E00E580B4ED028003020440E3
:1004300079347B05EB04FB83F70970F88002320006
:10044000E580B4DD02800302045A79347B05EB04B5
:10045000FB83F70970F880023500E580B4BD0280A7
:100460000302047479347B05EB04FB83F70970F80D
:1004700080023800E580B47D02800302048E793466
:100480007B05EB04FB83F70970F880023000E58000
:10049000B4EB0280030204A879347B05EB04FB83F0
:1004A000F70970F880023300E580B4DB02800302B4
:1004B00004C279347B05EB04FB83F70970F88002F2
:1004C0003600E580B4BB0280030204DC79347B058E
:1004D000EB04FB83F70970F880023900793651B9D3
:1004E00078347A0F1202AEE580B47B0280030205F5
:1004F0002E79347B05EB04FB83F70970F880022327
:1005000000783651CA11AD793678227A0F1202AED0
:1005100078367901112E792278367A101202AE7966
:10052000227A02515B7946781011A3B1B922E58095
:10053000B4B702800302057579347B05EB04FB83B5
:10054000F70970F880024300783651C0F54875F01D
:1005500001E548C395F0C0E07848D0E0F67936AAC6
:1005600048783651AE7700E548B4000280030205B2
:10057000757936E4F7B17C74963147223139797F49
:1005800075F0011202F5780BE88360061200C208CC
:1005900080F602059A4E61706900E411C2780BE89A
:1005A0008360061200C20880F60205B46369652004
:1005B000553A2000783651D4223139797F75F001CF
:1005C0001202F5780BE88360061200C20880F6027A
:1005D00005D74E61706900E411C2780BE8836006AC
:1005E0001200C20880F60205F163696520553A20C1
:1005F0000078467A027922510E782251D4780BE89D
:100600008360061200C20880F602060F2056002200
:00000001FF
