:100000000204DE32000000000000003200000000A8
:10001000000000320000000000000032000000007C
:100020000000003200000000000000320000C39514
:10003000F02212002E60044002E422740122D3E474
:1000400033DAFDFAF4FB22AE02E6F70809DEFA2203
:10005000C0E0741B1470FDD0E000227B0474FA121F
:1000600000FCDBF9DAF522C0E074031200FCD0E0FA
:1000700022D2B1C2B3A2E492B4A2E592B5A2E692B2
:10008000B6A2E792B7D2B3C2B3A2E092B4A2E19211
:10009000B5A2E292B6A2E392B7D2B3C2B3120050B5
:1000A00012005022C2B180CBC2B1C2B3120067C2EB
:1000B000B7C2B6D2B5D2B4D2B3C2B312006712007F
:1000C00067D2B3C2B3120067D2B3C2B3120067C221
:1000D000B4D2B3C2B312006774281200A4740E1213
:1000E00000A474061200A42274C01200A422740199
:1000F0001200A412006774801200A42278C879024A
:10010000D8FED9FCD5E0F522AE02760008DEFB224F
:10011000780C3108200111C2D574082A14F8E63091
:10012000E706B2D57808318B20010F74102A14F835
:10013000E630E706B2D57810318B7810790875F083
:1001400008EAA4FBE626F6C0D0BA0104D0D0800BA2
:10015000D0D0AE021E08E633F6DEFA780CAE02E628
:1001600033F608DEFAAE02780CE6970908DEFA19D3
:10017000781040127908C3780CAE02E697F60908A9
:10018000DEF9781019067908DBBA22AE02D3E6F45C
:100190003400F608DEF822C0017910120047D001C1
:1001A000C00174102A14F8E6C0E078083108780815
:1001B000760AE9240FF9E4F719C0013110780CD060
:1001C00001E62430F77810AE02E44608DEFC70E861
:1001D000D0E020010730E704742D19F7A801D00101
:1001E0007A101201E622E6F760040809DAF8E4F76B
:1001F00022E760030980FA227900E6080970FBE92A
:100200001422A981191919E7F81202158D088E090F
:100210008F0A8B0B22E4FFFEFDFCFBC2D5C2D1E6A8
:10022000B42D0508D2F08006B42E0108C2F0C0F04B
:10023000E6B42E02800AB4300E08E618B42E080880
:100240007908D2D102027DE6B42E028028B40002E1
:100250008023C39430FC790808E6B42E028016B4DB
:100260000007E4FAF9F8020312C39430FA12039E6D
:10027000D9E6020339C004C005C006C007E4FFFE8A
:10028000FDFBE9B40107E4FAF9F802031208E6B449
:100290000007E4FAF9F8020312C39430FCC0011914
:1002A000E9601008E6B400028009C39430FA120332
:1002B0009ED9F0D0E0C082C399F582E4F9FAFBEF51
:1002C00075F00A84FFC082780675820CC2D5E620DC
:1002D000D50454F08003540FC445F0C475F00A846B
:1002E000C082F582E620D508540FC44582C480043C
:1002F00054F04582F6D082B2D520D50118D582CEF1
:10030000D082D582BAD08220D160D007D006D00565
:10031000D00475F020EF20E725E828F8E933F9EA62
:1003200033FAEB33FBEC33FCED33FDEE33FEEF330E
:10033000FFD5F0E275F082802175F081801CEC30F1
:10034000E718ED2401FDEE3400FEEF3400FF500A03
:1003500005F013FFEE13FEED13FDE5F014247FD03E
:10036000F0A2F013FBEF92E7FF2275F020EB20E7FD
:1003700011E929F9EA33FAEB33FBD5F0F175F07F97
:1003800080077421C395F0F5F089058A068B077400
:100390007F95F0D0F0A2F013FBEF92E7FF22EC750F
:1003A000F00AA42AFCE5F03400CDC0D075F00AA410
:1003B000D0D03DFDE5F03400CEC0D075F00AA4D019
:1003C000D03EFEE5F03400FF22E660061200710820
:1003D00080F722E47808F608B811FB78111204D2ED
:1003E000700302047278151204D27003020472784A
:1003F00013E633034480F608E6339208FF7817E6E5
:1004000033034480F608E6335002B2082F30E70485
:1004100050118002400D75100075110075120075A5
:100420001300222481F67A18C378137B06E613F6AC
:1004300018DBFA78157B03E633F608DBFA500E7802
:1004400008790EC37B06E637F60809DBF9DAD978B6
:100450000DE6791830E70307800B78087A06E63353
:10046000F608DAFA18E7A20813F7E692E7F6851815
:100470000E22750E0022E4FBFAEEA2E74480FEEFA6
:100480003350027A016010C3947FFF20E709BF2038
:1004900000400B74FF8001E4FBFCFDFE8014741F20
:1004A000C39FFFC3EE13FEED13FDEC13FCEB13FB38
:1004B000DFF1BA0114EBF42401FBECF43400FCEDA1
:1004C000F43400FDEEF43400FE8B088C098D0A8EA6
:1004D0000B22E4C00179044608D9FCD0012278FF40
:1004E000E4F6D8FD7581447520001200A87400243C
:1004F000401200A4780BE88360061200710880F6B1
:1005000002050C20201F111F101F0200740C120086
:10051000A41200EE780BE88360061200710880F6E2
:100520000205284E61706900E4120071780BE883BF
:1005300060061200710880F6020542636965205565
:100540003D0075330075F003E5331200327003028D
:1005500005CDAA330A12003EEB5280300A053084E2
:1005600012C20A20840D74191200FC208405D20ADC
:100570001205D0300B05308512C20B20850D741981
:100580001200FC208505D20B1205D0300C053086F8
:1005900012C20C20860D74191200FC208605D20CA4
:1005A0001205D0300D05308712C20D20870D741949
:1005B0001200FC208705D20D1205D0AA330A1200C2
:1005C0003EEA42800533E5336003020545020542F9
:1005D0007934E4F7E580B4EE0280030205EE793465
:1005E0007B05EB04FB83F70970F880023100E5809E
:1005F000B4DE02800302060879347B05EB04FB833A
:10060000F70970F880023400E580B4BE028003026E
:10061000062279347B05EB04FB83F70970F880022E
:100620003700E580B47E02800302063C79347B0506
:10063000EB04FB83F70970F880022E00E580B4ED2F
:1006400002800302065679347B05EB04FB83F7092D
:1006500070F880023200E580B4DD0280030206708B
:1006600079347B05EB04FB83F70970F880023500D1
:10067000E580B4BD02800302068A79347B05EB0471
:10068000FB83F70970F880023800E580B47D0280B2
:10069000030206A479347B05EB04FB83F70970F8A9
:1006A00080023000E580B4EB0280030206BE79349C
:1006B0007B05EB04FB83F70970F880023300E580CB
:1006C000B4DB0280030206D879347B05EB04FB839C
:1006D000F70970F880023600E580B4BB028003029F
:1006E00006F279347B05EB04FB83F70970F880028E
:1006F000390079361201F178347A051201E6E58085
:10070000B4B702800302074779347B05EB04FB830F
:10071000F70970F88002430078361201F8F5427547
:10072000F001E542C395F0C0E07842D0E0F67936BA
:10073000AA4278361201E67700E542B4000280034F
:100740000207477936E4F71207D4E580B47B0280CC
:10075000030207CE79347B05EB04FB83F70970F8BD
:1007600080022300792278367A101201E67922C0BD
:1007700001E4C0E012020215811581793C78087A03
:10078000041200477511007512007513207514418D
:10079000853C15853D16853E17853F181203D38588
:1007A0000B3C850C3D850D3E850E3F783C8604084C
:1007B000860508860608860712047685084085099E
:1007C0004112080B7936E4F774781200FC22747831
:1007D0001200FC221200EE780BE883600612007112
:1007E0000880F60207EB4E61706900E41200717830
:1007F0000BE88360061200710880F6020805636941
:100800006520553D0078361203C9221200EE780BA0
:10081000E88360061200710880F60208224E6170BB
:100820006900E4120071780BE88360061200710819
:1008300080F602083C63696520553D007836120356
:10084000C9780BE88360061200710880F60208522E
:1008500056001200E8780BE88360061200710880E9
:10086000F602086C42616A74202D200078407A02FA
:10087000792212019778221203C922000000000099
:00000001FF
