:100000000200673200000000000000320000000023
:10001000000000320000000000000032000000007C
:100020000000003200000000000000320000C39514
:10003000F02212002E60044002E422740122D3E474
:1000400033DAFDFAF4FB227B0474FA115BDBFADA93
:10005000F622C0E07403115BD0E02278C87902D8A0
:10006000FED9FCD5E0F52278FFE4F6D8FD758122B3
:1000700075200075A0007A01114775210075F00701
:10008000E5211132700302009FAA210A12003EEA04
:1000900042A07432115B0521E521600302007D75E9
:1000A00021078521F0E412003270030200C8AA2162
:1000B0000A12003EEB52A07432115B782116E52142
:1000C000B4FF0280030200A202007AC2AF80FE00E9
:00000001FF
