:1000000002004A3200000000000000320000000040
:10001000000000320000000000000032000000007C
:100020000000003200000000000000320000C39514
:10003000F02212002E60044002E422740122D3E474
:1000400033DAFDFAF4FB2222222278FFE4F6D8FD0F
:100050007581227520007580007A01114775210095
:1000600075F007E5211132700302008FAA210A12F0
:10007000003EEA428074321149AA210A12003EEB86
:100080005280743211490521E52160030200607538
:1000900021068521F0740112003270030200C6AA05
:1000A000210A12003EEA428074321149AA210A1242
:1000B000003EEB528074321149782116E521B4FFDD
:1000C00002800302009202005D00000000000000B8
:00000001FF
