:1000000002002F320000000000000032000000005B
:10001000000000320000000000000032000000007C
:1000200000000032000000000000003200002278D2
:10003000FFE4F6D8FD75812175200075800075807C
:1000400000D2807432112E758000D2817432112E4C
:10005000758000D2827432112E758000D283743282
:10006000112E758000D2847432112E758000D285D5
:100070007432112E758000D2867432112E75800074
:10008000D2877432112E758000D2867432112E758B
:100090008000D2857432112E758000D284743211A2
:1000A0002E758000D2837432112E758000D2827436
:1000B00032112E758000D2817432112E75800002AB
:1000C000003EC2AF80FE0000000000000000000003
:00000001FF
