:100000000200673200000000000000320000000023
:10001000000000320000000000000032000000007C
:100020000000003200000000000000320000C39514
:10003000F02212002E60044002E422740122D3E474
:1000400033DAFDFAF4FB227B0474FA115BDBFADA93
:10005000F622C0E07403115BD0E02278C87902D8A0
:10006000FED9FCD5E0F52278FFE4F6D8FD758122B3
:100070007520007580007A01114775210075F00721
:10008000E521113270030200ACAA210A12003EEAF7
:1000900042807432115BAA210A12003EEB52807436
:1000A00032115B0521E521600302007D7521068583
:1000B00021F0740112003270030200E3AA210A1237
:1000C000003EEA42807432115BAA210A12003EEB24
:1000D00052807432115B782116E521B4FF0280034F
:1000E0000200AF02007A00000000000000000000E3
:00000001FF
