:100000000200673200000000000000320000000023
:10001000000000320000000000000032000000007C
:100020000000003200000000000000320000C39514
:10003000F02212002E60044002E422740122D3E474
:1000400033DAFDFAF4FB227B0474FA115BDBFADA93
:10005000F622C0E07403115BD0E02278C87902D8A0
:10006000FED9FCD5E0F52278FFE4F6D8FD758122B3
:1000700075200075A0007580007A01114775210078
:1000800075F007E521113270030200AEA2B79204A9
:1000900050030200980200E6AA210A12003EEA423A
:1000A000A07432115B0521E52160030200807521F7
:1000B000078521F0E412003270030200E3A2B79238
:1000C0000450030200C90200E6AA210A12003EEB16
:1000D00052A07432115B782116E521B4FF0280032F
:1000E0000200B102007D75800075A00075210075C9
:1000F000F007E5211132700302012AA2B0920450E8
:1001000003020107020170AA210A12003EEA42809E
:100110007432115BAA210A12003EEB528074321134
:100120005B0521E52160030200EF7521068521F0C2
:100130007401120032700302016DA2B092045003E8
:10014000020146020170AA210A12003EEA428074AE
:1001500032115BAA210A12003EEB52807432115B0D
:10016000782116E521B4FF02800302012D0200EC84
:1001700075800075A00002007DC2AF80FE00000007
:00000001FF
