:100000000201DC32000000000000003200000000AD
:10001000000000320000000000000032000000007C
:100020000000003200000000000000320000AE02BC
:10003000E6F70809DEFA22C0E0741B1470FDD0E078
:1000400000227B0474FA1200DDDBF9DAF522C0E04D
:1000500074031200DDD0E022D2B1C2B3A2E492B4A4
:10006000A2E592B5A2E692B6A2E792B7D2B3C2B326
:10007000A2E092B4A2E192B5A2E292B6A2E392B754
:10008000D2B3C2B312003712003722C2B180CBC242
:10009000B1C2B312004EC2B7C2B6D2B5D2B4D2B357
:1000A000C2B312004E12004ED2B3C2B312004ED2EF
:1000B000B3C2B312004EC2B4D2B3C2B312004E7474
:1000C0002812008B740E12008B740612008B22749F
:1000D0000112008B12004E748012008B2278C879B6
:1000E00002D8FED9FCD5E0F522AE02760008DEFB90
:1000F00022780C11E9200111C2D574082A14F8E6FF
:1001000030E706B2D57808316C20010F74102A143C
:10011000F8E630E706B2D57810316C7810790875BA
:10012000F008EAA4FBE626F6C0D0BA0104D0D080DD
:100130000BD0D0AE021E08E633F6DEFA780CAE0223
:10014000E633F608DEFAAE02780CE6970908DEFA26
:1001500019781040127908C3780CAE02E697F609B8
:1001600008DEF9781019067908DBBA22AE02D3E668
:10017000F43400F608DEF822C001791012002ED007
:1001800001C00174102A14F8E6C0E0780811E9787B
:1001900008760AE9240FF9E4F719C00111F1780C87
:1001A000D001E62430F77810AE02E44608DEFC7099
:1001B000E8D0E020010730E704742D19F7A801D03A
:1001C000017A101201C722E6F760040809DAF8E4A0
:1001D000F722E660061200580880F72278FFE4F65E
:1001E000D8FD75813375200012008F740C12008BBE
:1001F00075320012023430A0FDA2A2920450030214
:10020000021075F001E53225F0C0E07832D0E0F65A
:10021000A2A29204400302022875F001E532C395C0
:10022000F0C0E07832D0E0F620A0FD20A2FD12025E
:10023000340201F61200CF780BE8836006120058F2
:100240000880F6020249493D0078327A017921D2CC
:1002500001120178C20178211201D22200000000AF
:00000001FF
