:100000000201CE32000000000000003200000000BB
:10001000000000320000000000000032000000007C
:100020000000003200000000000000320000AE02BC
:10003000E6F70809DEFA22222222D2B1C2B3A2E4F4
:1000400092B4A2E592B5A2E692B6A2E792B7D2B375
:10005000C2B3A2E092B4A2E192B5A2E292B6A2E348
:1000600092B7D2B3C2B312003712003722C2B180A6
:10007000CBC2B1C2B3120039C2B7C2B6D2B5D2B484
:10008000D2B3C2B3120039120039D2B3C2B31200D4
:1000900039D2B3C2B3120039C2B4D2B3C2B3120060
:1000A00039742812006D740E12006D740612006D02
:1000B00022740112006D120039748012006D222228
:1000C000AE02760008DEFB22780C11C0200111C2BE
:1000D000D574082A14F8E630E706B2D5780831431B
:1000E00020010F74102A14F8E630E706B2D5781014
:1000F00031437810790875F008EAA4FBE626F6C0CB
:10010000D0BA0104D0D0800BD0D0AE021E08E633A6
:10011000F6DEFA780CAE02E633F608DEFAAE0278C6
:100120000CE6970908DEFA19781040127908C378AE
:100130000CAE02E697F60908DEF978101906790880
:10014000DBBA22AE02D3E6F43400F608DEF822C0B1
:10015000017910112ED001C00174102A14F8E6C0E4
:10016000E0780811C07808760AE9240FF9E4F71955
:10017000C00111C8780CD001E62430F77810AE0227
:10018000E44608DEFC70E8D0E020010730E70474A4
:100190002D19F7A801D0017A10319C22E6F76004EE
:1001A0000809DAF8E4F722E6600612003A0880F758
:1001B00022BA0104797F8010BA020479BF8009BA9B
:1001C0000304798F800279CFE925F002006D78FF72
:1001D000E4F6D8FD75813375200012007174002497
:1001E0004012006D780BE883600612003A0880F632
:1001F0000201FC02040E1111110E200074082440AB
:1002000012006D780BE883600612003A0880F6024F
:10021000021B20201F111F101F0200741024401207
:10022000006D780BE883600612003A0880F602023F
:100230003A02041F101F011F2000741824401200EE
:100240006D780BE883600612003A0880F6020259C6
:1002500002041F1010101F2000740C116D11B178D2
:100260000BE883600612003A0880F602027A20202A
:10027000576974616D2050616E00E4113A780BE8A3
:1002800083600612003A0880F602028E770079BF7A
:1002900075F0011201C8780BE883600612003A0875
:1002A00080F60202AE20206E61207A616A0074013D
:1002B000113A780BE883600612003A0880F60202D1
:1002C000C76369616368007A01113811B1797F757C
:1002D000F0011201C8780BE883600612003A08802A
:1002E000F60202F02020202053595354454D590066
:1002F00079BF75F0011201C8780BE883600612001F
:100300003A0880F6020314202020574255444F57E4
:10031000414E45007A011138753200716FA280920A
:10032000045003020342E532B4FA028002400302A1
:10033000034275F00AE53225F0C0E07832D0E0F6ED
:10034000716FA28192045003020368E532B4000287
:100350008002500302036875F00AE532C395F0C0CD
:10036000E07832D0E0F6716F02031DC2AF80FE115B
:10037000B1797F75F0011201C8780BE8836006122D
:10038000003A0880F602038E576172746F0074029F
:10039000113A7403113A780BE883600612003A08A8
:1003A00080F60203A83A200078327A017921D2013E
:1003B000314FC201782131A7742C11BF22000000F7
:00000001FF
