:100000000201F93200000000000000320000000090
:10001000000000320000000000000032000000007C
:100020000000003200000000000000320000C39514
:10003000F02212002E60044002E422740122AE027B
:10004000E6F70809DEFA22C0E0741B1470FDD0E068
:1000500000227B0474FA1200F3DBF9DAF522C0E027
:1000600074031200F3D0E022D2B1C2B3A2E492B47E
:10007000A2E592B5A2E692B6A2E792B7D2B3C2B316
:10008000A2E092B4A2E192B5A2E292B6A2E392B744
:10009000D2B3C2B312004712004722C2B180CBC212
:1000A000B1C2B312005EC2B7C2B6D2B5D2B4D2B337
:1000B000C2B312005E12005ED2B3C2B312005ED2AF
:1000C000B3C2B312005EC2B4D2B3C2B312005E7444
:1000D0002812009B740E12009B740612009B22745F
:1000E000C012009B22740112009B12005E748012E9
:1000F000009B2278C87902D8FED9FCD5E0F522AE63
:1001000002760008DEFB22780C11FF200111C2D517
:1001100074082A14F8E630E706B2D5780831822050
:10012000010F74102A14F8E630E706B2D5781031C2
:10013000827810790875F008EAA4FBE626F6C0D0AC
:10014000BA0104D0D0800BD0D0AE021E08E633F640
:10015000DEFA780CAE02E633F608DEFAAE02780C70
:10016000E6970908DEFA19781040127908C3780C6E
:10017000AE02E697F60908DEF9781019067908DB71
:10018000BA22AE02D3E6F43400F608DEF822C0014B
:10019000791012003ED001C00174102A14F8E6C094
:1001A000E0780811FF7808760AE9240FF9E4F719D6
:1001B000C0013107780CD001E62430F77810AE0288
:1001C000E44608DEFC70E8D0E020010730E7047464
:1001D0002D19F7A801D0017A101201DD22E6F7608F
:1001E000040809DAF8E4F722E760030980FA22E656
:1001F00060061200680880F72278FFE4F6D8FD75E3
:10020000814675200012009F7408244012009B78DC
:100210000BE88360061200680880F60202271010BF
:10022000101010101010007410244012009B780B56
:10023000E88360061200680880F602024618181863
:100240001818181818007418244012009B780BE82E
:100250008360061200680880F60202651C1C1C1CE4
:100260001C1C1C1C007420244012009B780BE8838B
:1002700060061200680880F60202841E1E1E1E1E02
:100280001E1E1E007428244012009B780BE8836019
:10029000061200680880F60202A31F1F1F1F1F1FFF
:1002A0001F1F00740C12009B75443212030430A708
:1002B000FDA2A5920450030202D5E544B4000280D9
:1002C0000250030202D575F001E544C395F0C0E089
:1002D0007844D0E0F6A2A5920440030202F8E54477
:1002E000B44002800240030202F875F001E54425A3
:1002F000F0C0E07844D0E0F620A7FD20A5FD120371
:10030000040202AE1200E57932E4F775F005E54427
:1003100084C0E07845D0E0F67543008545F0E543BC
:1003200012003270030203407405C0E079321201FA
:10033000E8D0E0F70977000543E543600302031BBB
:1003400075F005E54484C0F07845D0E0F6E545B4A5
:10035000000280025003020368E545C0E0793212D2
:1003600001E8D0E0F7097700780BE8836006120017
:10037000680880F6020381566F6C756D65202D202C
:100380000078447A017921D20112018EC2017821CC
:100390001201EF780BE88360061200680880F6020D
:1003A00003A56442001200DF78321201EF22000040
:00000001FF
