:1000000002007A3200000000000000320000000010
:10001000000000320000000000000032000000007C
:100020000000003200000000000000320000C39514
:10003000F02212002E60044002E422740122120019
:100040005460044002E422740122D3E433DAFDFA5E
:10005000F4FB2222ED6FA2E75006EDA2E774FF2227
:10006000C3EC9EFCED9FFDA2E74C22EC2EFCED3F85
:10007000FD22C3EC9EFCED9FFD2278FFE4F6D8FD47
:1000800075812575200075230175A000A286920454
:10009000500302009711F5A287920450030200A2B8
:1000A00011D7A281920450030200AD3114A28092B4
:1000B0000450030200B83118E523B40102800302A2
:1000C00000C4311CE523B4000280030200D0314B90
:1000D00002008CC2AF80FEAC21AD227E007F0011F9
:1000E0003E60030200F4AC21AD227E0A7F00117253
:1000F0008C218D22227CC87D00AE21AF2212003ED1
:100100006003020113AC21AD227E0A7F00116B8CCB
:10011000218D22227523012275230022752400756A
:10012000F003E5241132700302014AAA240A1200E6
:100130004AEA42A0E5211153AA240A12004AEB52CE
:10014000A00524E524600302011F227524038524F1
:10015000F0E4120032700302017DAA240A12004A60
:10016000EA42A0E5211153AA240A12004AEB52A048
:10017000782416E524B4FF02800302014E22000019
:00000001FF
