:1000000002029332000000000000003200000000F5
:10001000000000320000000000000032000000007C
:100020000000003200000000000000320000120159
:10003000BD60044002E422740122AE02E6F7080922
:10004000DEFA22222222D2B1C2B3A2E492B4A2E505
:1000500092B5A2E692B6A2E792B7D2B3C2B3A2E03B
:1000600092B4A2E192B5A2E292B6A2E392B7D2B361
:10007000C2B312004312004322C2B180CBC2B1C24C
:10008000B3120045C2B7C2B6D2B5D2B4D2B3C2B36E
:10009000120045120045D2B3C2B3120045D2B3C21A
:1000A000B3120045C2B4D2B3C2B3120045742812D1
:1000B0000079740E1200797406120079227401120C
:1000C000007912004574801200792222AE02760077
:1000D00008DEFB22780C11CC200111C2D574082A4D
:1000E00014F8E630E706B2D57808314F20010F74D6
:1000F000102A14F8E630E706B2D57810314F7810A0
:10010000790875F008EAA4FBE626F6C0D0BA010427
:10011000D0D0800BD0D0AE021E08E633F6DEFA78DF
:100120000CAE02E633F608DEFAAE02780CE697096A
:1001300008DEFA19781040127908C3780CAE02E68E
:1001400097F60908DEF9781019067908DBBA22AEAD
:1001500002D3E6F43400F608DEF822C0017910116B
:100160003AD001C00174102A14F8E6C0E0780811F2
:10017000CC7808760AE9240FF9E4F719C00111D404
:10018000780CD001E62430F77810AE02E44608DEA1
:10019000FC70E8D0E020010730E704742D19F7A8BF
:1001A00001D0017A1031A822E6F760040809DAF8D4
:1001B000E4F722E660061200460880F722ED6FA2FF
:1001C000E75006EDA2E774FF22C3EC9EFCED9FFD15
:1001D000A2E74C22EC2EFCED3FFD22C3EC9EFCED91
:1001E0009FFD225101EC8EF0A4F8A9F0EC8FF0A451
:1001F00029F9ED8EF0A429FDAC0030D503120226BA
:1002000022C2D5C004C005AC06AD07ED30E709B287
:10021000D5120226AE04AF05D005D004ED30E705B7
:10022000B2D512022622EDF4FDECF42401FC5001BB
:100230000D2275F010E4F8F9FAFBC3EC33FCED3352
:10024000FDEA33FAEB33FBC3EA9EF582EB9F4003F2
:10025000FBAA82B3E833F8E933F9D5F0DDC32220F5
:100260000103120201120232AC00AD01200106307E
:10027000D50312022622BA0104797F8010BA020443
:1002800079BF8009BA0304798F800279CFE925F01C
:1002900002007978FFE4F6D8FD75813575200012EB
:1002A000007D7140C2A7A280920450030202B17186
:1002B0001BA281920450030202BC51F7C2A77C9694
:1002C0007D00AE32AF3331DB8C34E53411CBD2A7B5
:1002D000AC32AD337E327F0031D48C328D33E53297
:1002E00011CBAC32AD337E327F0031DB8C328D33BB
:1002F0000202A6C2AF80FEAC32AD337E007F001199
:100300002E600302031AAC32AD337E0A7F0031DB6C
:100310008C328D337140749611CB227C647D00AE9B
:1003200032AF3312002E600302033FAC32AD337E96
:100330000A7F0031D48C328D337140749611CB22F8
:1003400011BD797F75F00112028DAC32AD337E0A9A
:100350007F0031E38C328D33780BE8836006120026
:10036000460880F60203704F62726F74793A20007B
:1003700078327A027921315B782131B3AC32AD33F6
:100380007E0A7F00515F8C328D3322000000000016
:00000001FF
